:020000001429C1
:10000800F000030EF1000B1812200B1919200C1820
:100018004420710E8300F00E700E09000313831242
:10002800861E061F861F0B100800FF3081000B116B
:10003800880120182328260887002A202728250831
:100048008700372027280130A006080001302E0637
:100058000319081402302E060319081503302E065A
:1000680003190816080001302E06031988140230F7
:100078002E060319881503302E0603198816080062
:100088000313831288308F005F308E000C10031327
:1000980083122E08AF0001302E0603195D210230AD
:1000A8002E0603196A2103302E06031977212F081B
:0400B800AE0008008E
:100200008A010A140F3982073F3406345B344F34B5
:1002100066346D347D3407347F346F3477347C3406
:1002200039345E34793471345321B7219D21BE2194
:10023000E421D721CD210313831201302E060319A7
:100240002B2102302E060319312103302E0603190B
:1002500037213D211B290515851505172808A700FD
:1002600008000514851605172908A70008000514BD
:10027000851506142A08A7000800A401A3010A3066
:10028000A7020318A40A03184029A7072708A300F8
:100290004A210800A601A50124080021A600230880
:1002A0000021A50008000A30A800A900AA00AB00A0
:1002B000AC00AD000130AE000800A80306302806EF
:1002C000031993210330280603199421A808031960
:1002D00084210800A903063029060319932103305D
:1002E000290603199721A908031989210800AA03DF
:1002F00006302A060319932103302A0603199A218E
:10030000AA0803198E2108000230AF002B08A800AC
:1003100008000330AF002C08A90008000130AF002E
:100320002D08AA0008000800051185140800851290
:1003300005160800061085170800031783168801A4
:100340008901031383168501061086160617861782
:1003500087018801890181139516151795170313D5
:100360008312860185018701880189010800031332
:1003700083160F178F120F120F1408000313831226
:100380008B178B150B108B160B110B170313831682
:100390000C14031383120C10080003138316961613
:1003A000161796170313831206080B100800031381
:1003B0008316811281110115811401140313831214
:1003C000FF3081000B1108000313831210149010EA
:1003D000901610160313831288308F005F308E0042
:0403E0000C100800F5
:04400E00C430FF3F7C
:00000001FF
