:020000001429C1
:10000800F000030EF1000B1910200C181720710EC8
:100018008300F00E700E0900FE3081000B110313EF
:100028008312880A0800031383127E308F001E3063
:0C0038008E000C1003138312850A0800D0
:100200008A010A140F3982073F3406345B344F34B5
:1002100066346D347D3407347F346F3477347C3406
:1002200039345E34793471341A21292130213D2149
:100230004B2119290317831688018901031383169B
:1002400085018701880103138312850187018801D5
:100250000800031383160F138F120F160F140800D4
:1002600003138316811281110111811401140313E8
:100270008312FE3081000B11080003138312101447
:10028000901090161016031383127E308F001E30CC
:100290008E000C100800031383128B170B178B169C
:1002A0000B11031383160C14031383120C10080094
:04400E00C430FF3F7C
:00000001FF
