:020000001429C1
:10000800F000030EF1000B1812200B1919200C1820
:100018004420710E8300F00E700E09000313831242
:10002800861E061F861F0B100800FF3081000B116B
:10003800880120182328260887002A202728250831
:100048008700372027280130A006080001302E0637
:100058000319081402302E060319081503302E065A
:1000680003190816080001302E06031988140230F7
:100078002E060319881503302E0603198816080062
:1000880003138312C2308F00F8308E000C10031354
:1000980083122E08AF0001302E0603195A210230B0
:1000A8002E060319692103302E06031976212F081D
:0400B800AE0008008E
:100200008A010A140F3982073F3406345B344F34B5
:1002100066346D347D3407347F346F3477347C3406
:1002200039345E3479347134D021B6214A21D72152
:10023000F221FF21E8210313831201302E06031956
:100240002B2102302E0603192E2103302E0603190E
:10025000312134211B292808A70008002908A700FC
:1002600008002A08A7000800A401A3010A30A70279
:100270000318A40A03183729A7072708A300412158
:100280000800A601A50124080021A60023080021DA
:10029000A50008000A30A800A900AA00AB00AC0025
:1002A000AD000130AE000330B100B0010515851579
:1002B00005170800A8030630280603193014301863
:1002C000A121033028060319AD21A80803198321B1
:1002D0000800A903063029060319AB2103302906BB
:1002E0000319B021A90803198D210800AA030630BB
:1002F0002A060319AC2103302A060319B321AA08E0
:100300000319972108000230AF002B08A80005143C
:10031000851685110517851008000330AF002C08DD
:10032000A9000514851506140513051608000130EB
:10033000AF002D08AA0005150510851505178517AE
:100340000800051D051505190511B10B0800B001C0
:100350000330B100080008000800051185140800EA
:100360008512051608000610851708000317831666
:100370008801890103138316850106108616061766
:10038000861787018801890181139516151795171E
:100390000313831286018501870188018901080002
:1003A000031383160F138F160F160F140800031371
:1003B00083128B178B150B108B160B110B17031356
:1003C00083160C148C14031383120C108C10080069
:1003D000031383169616161796170313831206082F
:1003E0000B1008000313831681128111011581146B
:1003F000011403138312FF3081000B110800031353
:100400008312101490109016101603138312C2302A
:0A0410008F00F8308E000C10080079
:04400E00C430FF3F7C
:00000001FF
