:020000001429C1
:10000800F000030EF1000B1812200B1919200C1820
:100018002020710E8300F00E700E09000313831266
:10002800861E061F861F0B100800FE3081000B116C
:1000380003138312880A0800031383127E308F008B
:0E0048001E308E000C1003138312850A080070
:100200008A010A140F3982073F3406345B344F34B5
:1002100066346D347D3407347F346F3477347C3406
:1002200039345E34793471341B21332153216021F8
:100230003A2149211A2903178316880189010313DA
:100240008316850106108616061786178701880112
:1002500089018113951615179517031383128501CC
:10026000870188010800031383160F138F120F16DE
:100270000F140800031383128B178B150B108B16AA
:100280000B110B17031383160C14031383120C109A
:100290000800031383169616161796170313831276
:1002A00006080B1008000313831681128111011137
:1002B0008114011403138312FE3081000B11080016
:1002C0000313831210149010901610160313831248
:0C02D0007E308F001E308E000C100800E5
:04400E00C430FF3F7C
:00000001FF
