:020000001429C1
:10000800F000030EF1000B1814200B191B200C181C
:1000180046208C186220710E8300F00E700E0900C5
:1000280003138312861E061F861F0B100800FF305D
:1000380081000B11880120182528260887002C200C
:10004800292825088700392029280130A00608001A
:1000580001302E060319081402302E06031908155C
:1000680003302E0603190816080001302E0603195E
:10007800881402302E060319881503302E0603193A
:100088008816080003138312C2308F00F8308E00E0
:100098000C10031383123018B1032E08AF0001307F
:1000A8002E0603195C2102302E060319692103303C
:1000B8002E06031976212F08AE00080003138312B9
:1000C800F43092008C1030186A20080001302E0697
:1000D8000319A12102302E060319B22103302E067E
:0400E8000319C32114
:100200008A010A140F3982073F3406345B344F34B5
:1002100066346D347D3407347F346F3477347C3406
:1002200039345E3479347134EE21D4214B21F521F7
:1002300010221D222B2206220313831201302E06C8
:1002400003192C2102302E0603192F2103302E060C
:100250000319322135211C292808A7000800290884
:10026000A70008002A08A7000800A401A3010A307B
:10027000A7020318A40A03183829A7072708A30010
:1002800042210800A601A50124080021A600230898
:100290000021A50008000A30A800A900AA00AB00B0
:1002A000AC00AD000130AE00B2000330B100B001CF
:1002B0000515851505170800A8030630280603193B
:1002C00030140330280603198514A8080319832164
:1002D0000800A90306302906031930140330290643
:1002E00003190516A90803198D210800AA03063071
:1002F0002A060319301403302A0603198517AA08A1
:100300000319972108000230AF002B08A80005143C
:10031000851685110517851008000330AF002C08DD
:10032000A9000514851506140513051208000130EF
:10033000AF002D08AA0005150510851505178513B2
:10034000080005193210051D3214321C051132182F
:1003500005153108031D080032140511B0010330E2
:10036000B1000800851A3210851E3214321C851225
:10037000321885163108031D080032148512B001A9
:100380000330B100080006183210061C3214321C6B
:100390000610321806143108031D08003214061026
:1003A000B0010330B10008000317831688018901EA
:1003B0000313831685010610861606178617870114
:1003C0008801890181139516151795170313831258
:1003D00086018501870188018901080003138316BE
:1003E0000F138F160F160F140800031383128B17A9
:1003F0008B150B108B160B110B17031383160C1494
:100400008C14031383120C108C1008000313831632
:100410009616161796170313831206080B1008007A
:100420000313831681128111011581140114031322
:100430008312FF3081000B11080003138312101484
:1004400090109016101603138312C2308F00F830EC
:100450008E000C1008000313831212151217921647
:10046000121692159214921503138312F43092000F
:040470008C100800E4
:04400E00C430FF3F7C
:00000001FF
