:020000001429C1
:10000800F000030EF1000B1816200B1933200C1802
:1000180078208C1894200B181620710E8300F00E8F
:10002800700E090003138312861E2420053034063F
:100038000319B401061F2920861F2E200B10080063
:10004800B40A0A30B500AE00080004303406031DB7
:10005800AE0A080004303406031DAE030800FF3062
:1000680081000B118801200803194A28FD30200659
:1000780003194E28FE302006361C4428031952283E
:10008800FF302006361C4A28031956282608870000
:100098005E205A28250887006B205A2839088700CF
:1000A80008175A283A08870088175A28FC30A004ED
:1000B800A00A080001302F060319081402302F0681
:1000C8000319081503302F06031908160800013014
:1000D8002F060319881402302F06031988150330D8
:1000E8002F0603198816080003138312C2308F00E5
:1000F800F8308E000C10031383123118B2032F0846
:10010800B00001302F060319AE2102302F06031963
:10011800BB2103302F060319C8213008AF0008009F
:1001280003138312F43092008C1031189C200800BD
:1001380001302F060319F32102302F060319042278
:0801480003302F0603191522F4
:100200008A010A140F3982073F3406345B344F34B5
:1002100066346D347D3407347F346F3477347C3406
:1002200039345E34793471344022262296214722B3
:1002300062226F227D2258220313831201302F067F
:1002400003195F2102302F060319622103302F06A4
:1002500003196521682175213408031940210130F3
:100260003406031943210230340603194A210330AE
:1002700034060319502104303406031956211C2971
:1002800089013610080009148910091136142E0846
:10029000B50008000910891409112E08B5000800DE
:1002A0000910891009152E08B500080009148914D1
:1002B000091508000F30BB00BB0B5C29080028089B
:1002C000A70008002908A70008002A08A7000800BE
:1002D000A401A3010A30A7020318A40A03186B297A
:1002E000A7072708A30084210800B801B701350833
:1002F000A7000A30A7020318B80A03187A29A7072B
:100300002708B7008D210800A601A50124080021B7
:10031000A60023080021A5000800B901BA01380889
:100320000021B90037080021BA000800B4010A30E2
:10033000A800A900AA00AB00AC00AD000130AF00DE
:10034000B3000330B2000A30B500AE000030A000A8
:10035000B101B6010515851505170800A80306307B
:100360002806031931140330280603198514A80838
:100370000319D5210800A9030630290603193114F1
:100380000330290603190516A9080319DF210800FF
:10039000AA0306302A060319311403302A0603196A
:1003A0008517AA080319E92108000230B0002B08BC
:1003B000A80005148516851105178510080003305F
:1003C000B0002C08A90005148515061405130512A4
:1003D00008000130B0002D08AA000515051085158C
:1003E00005178513080005193310051D3314331C38
:1003F0000511331805153208031D080033140511C3
:10040000B1010330B2000800851A3310851E331481
:10041000331C8512331885163208031D0800331467
:100420008512B1010330B200080006183310061C13
:100430003314331C0610331806143208031D080049
:1004400033140610B1010330B200080003178316FD
:100450008801890103138316850106108616061785
:10046000861787018801890181139516151795173D
:100470000313831286018501870188018901080021
:10048000031383160F138F160F160F140800031390
:1004900083128B178B150B108B160B110B17031375
:1004A00083160C148C14031383120C108C10080088
:1004B000031383169616161796170313831206084E
:1004C0000B1008000313831681128111011581148A
:1004D000011403138312FF3081000B110800031372
:1004E0008312101490109016101603138312C2304A
:1004F0008F00F8308E000C100800031383121215C1
:100500001217921612169215921492150313831253
:08051000F43092008C10080089
:04400E00C430FF3F7C
:00000001FF
