:020000003429A1
:10000800F000030EF1000B1816200B1947200C18EE
:10001800DD208C18FD200B181620710E8300F00EC1
:10002800700E090003138312861E2620053034063D
:100038000319B4010319BC01061F2B20861F3920A0
:100048000B100800B40A0A30B500AE0008001430DE
:100058002E060319362804303406031DAE0A031988
:100068003C1408000A30AE0008000A302E060319B6
:10007800442804303406031DAE030319BC140800D9
:100088001430AE000800FF3081000B1188012018E1
:100098005F28A018652820196B28A0197128201A34
:1000A8007728A01A7D28361C5B28201B8328361C3D
:1000B8005F28A01B8928A001260887008F20A0148C
:1000C8000800A001250887009C2020150800A00131
:1000D80042088700A920A0150800A0014108870050
:1000E800B62020160800A00146088700C320A016E5
:1000F8000800A00145088700D02020170800A001AB
:10010800390887000817A0170800A0013A088700D7
:1001180088172014080001302F060319081402302C
:100128002F060319081503302F06031908160800AF
:1001380001302F060319881402302F060319881579
:1001480003302F0603198816080001302F060319FB
:10015800081502302F060319081603302F06031955
:100168000814080001302F060319881502302F06DD
:100178000319881603302F06031988140800013064
:100188002F060319081602302F0603190814033026
:100198002F0603190815080001302F0603198816C1
:1001A80002302F060319881403302F060319881507
:1001B800080003138312C2308F00F8308E000C1031
:1001C800031383123C18BB033C1808003118B20310
:1001D8002F08B00001302F060319402202302F06E5
:1001E80003194D2203302F0603195A223008AF0095
:1001F800080003138312F43092008C103118052183
:10020800080001302F060319852202302F06031932
:0A021800962203302F060319A722D7
:100240008A010A140F3982073F3406345B344F3475
:1002500066346D347D3407347F346F3477347C34C6
:1002600039345E3479347134D222B8222522D9222D
:10027000F42201230F23EA220313831201302F06F5
:100280000319B32102302F060319BB2103302F06B7
:100290000319C321CB21D821E521F2213408031908
:1002A0006221013034060319652102303406031936
:1002B0006D21033034060319742104303406031908
:1002C0007B213C2989013610080009148910091185
:1002D00036142E08B500AB00080009108914091166
:1002E0002E08B500AC0008000910891009152E0869
:1002F000B500AD0008000313831209148914091511
:1003000036103C188821BC18B401BC18BC01080088
:100310002B08A8002C08A9002D08AA000130AF0066
:10032000B3000330B2000A30B500AE000030A000C8
:10033000B101B601B4018501061005148515051734
:100340003F30A500C100C500A600C200C6003B08A2
:10035000031DA7290230BB00BC018501061005154D
:100360008515051708002808A7002808BD002808DB
:100370002907BE0008002908A7002908BD00290890
:100380002A07BE0008002A08A7002A08BD002A087C
:100390002807BE000800A401A3010A30A702031821
:1003A000A40A0318CE29A7072708A30001220800E2
:1003B000C001BF010A30BD020318C00A0318DB29BF
:1003C000BD073D08BF000A220800C401C3010A306E
:1003D000BE020318C40A0318E829BE073E08C3007A
:1003E00013220800B801B7013508A7000A30A70298
:1003F0000318B80A0318F729A7072708B7001C2213
:100400000800A601A50124082021A6002308202118
:10041000A5000800C201C10140082021C2003F0818
:100420002021C1000800C601C50144082021C600E2
:1004300043082021C5000800B901BA01380820216D
:10044000B90037082021BA000800B4010A30A8001A
:10045000A900AA00AB00AC00AD000130AF00B300B2
:100460000330B2000A30B500AE000030A000023008
:10047000BB00B101B601BC010515851505170800C3
:10048000A80306302806031931140330280603197F
:100490008514A808031967220800A9030630290655
:1004A000031931140330290603190516A908031985
:1004B00071220800AA0306302A06031931140330FA
:1004C0002A0603198517AA0803197B22080002309F
:1004D000B0002B08A8000514851685110517851096
:1004E00008000330B0002C08A90005148515061477
:1004F0000513051208000130B0002D08AA000515EB
:100500000510851505178513080005193310051DFD
:100510003314331C0511331805153208031D080068
:1005200033140511B1010330B2000800851A3310ED
:10053000851E3314331C8512331885163208031DAB
:10054000080033148512B1010330B2000800061808
:100550003310061C3314331C0610331806143208EB
:10056000031D080033140610B1010330B200080067
:10057000031783168801890103138316850106106A
:10058000861606178617870188018901811395163B
:1005900015179517031383128601850187018801BA
:1005A00089010800031383160F138F160F160F14FB
:1005B0000800031383128B178B150B108B160B116E
:1005C0000B17031383160C148C14031383120C10D3
:1005D0008C1008000313831696161617961703132C
:1005E000831206080B100800031383168112811171
:1005F00001158114011403138312FF3081000B11C4
:100600000800031383121014901090161016031391
:100610008312C2308F00F8308E000C1008000313D4
:100620008312121512179216121692159214921521
:0C06300003138312F43092008C100800B9
:04400E00C430FF3F7C
:00000001FF
