:020000001429C1
:10000800F000030EF1000B1812200B1919200C1820
:100018004520710E8300F00E700E09000313831241
:10002800861E061F861F0B100800FF3081000B116B
:10003800880120182428260887002B20081428283F
:1000480025088700382028280130A006080001303C
:100058002B060319081402302B0603190815033060
:100068002B0603190816080001302B0603198814FB
:1000780002302B060319881503302B06031988163E
:1000880008000313831288308F005F308E000C1035
:100098000313831201302B0603194F2102302B065C
:0E00A80003195D2103302B0603196B2108009C
:100200008A010A140F3982073F3406345B344F34B5
:1002100066346D347D3407347F346F3477347C3406
:1002200039345E3479347134482195217B219C2105
:10023000C221B521AB2101302B060319292102303F
:100240002B0603192C2103302B0603192F213221F1
:100250001B292808A70008002908A70008002A0869
:10026000A7000800A401A3010A30A7020318A40AEA
:1002700003183529A7072708A3003F210800A60176
:10028000A50124080021A60023080021A5000800DC
:100290001430A800A900AA000130AB000800A80390
:1002A00006302806031979210330280603197A211C
:1002B000A808031982080319AB00A9030630290610
:1002C000031979210330290603197A21A908031992
:1002D00083080319AB00AA0306302A060319792103
:1002E00003302A0603197A21AA0803198108031981
:1002F000AB00080008000317831688018901031367
:100300008316850106108616061786178701880151
:10031000890181139516151795170313831286010A
:1003200085018701880189010800031383160F17CF
:100330008F120F120F140800031383128B178B15E3
:100340000B108B160B110B17031383160C140313CE
:1003500083120C10080003138316961616179617AF
:100360000313831206080B1008000313831681126F
:10037000811101158114011403138312FF308100D0
:100380000B1108000313831210149010901610160E
:100390000313831288308F005F308E000C1008002A
:04400E00C430FF3F7C
:00000001FF
