:020000001429C1
:10000800F000030EF1000B1816200B191C200C1819
:1000180060208C187C200B181620710E8300F00EBF
:10002800700E090003138312861EB30A0B10080012
:10003800FF3081000B118801200803192F28013097
:100048002006031933280230200603193B28033001
:100058002006031937282608870046203F28250848
:10006800870053203F283908870008173F28380899
:10007800870088173F2835180330351C0130A00544
:10008800A00A080001302E060319081402302E06B3
:100098000319081503302E06031908160800013045
:1000A8002E060319881402302E060319881503300A
:1000B8002E0603198816080003138312C2308F0016
:1000C800F8308E000C10031383123018B1032E0879
:1000D800AF0001302E0603199B2102302E060319AA
:1000E800A82103302E060319B5212F08AE000800F9
:1000F80003138312F43092008C1030188420080007
:1001080001302E060319E02102302E060319F121D1
:0801180003302E060319022238
:100200008A010A140F3982073F3406345B344F34B5
:1002100066346D347D3407347F346F3477347C3406
:1002200039345E34793471342D22132286213422FC
:100230004F225C226A2245220313831201302E06CC
:100240000319512102302E060319542103302E06C2
:10025000031957215A213518672101303306031934
:100260003E210230330603194321033033060319BC
:1002700048210430330603194D211C290914891023
:1002800009113514080009108914091135140800E2
:100290000910891009153514080009148914091565
:1002A00008002808A70008002908A70008002A0855
:1002B000A7000800A401A3010A30A7020318A40A9A
:1002C00003185D29A7072708A30074210800B701B8
:1002D000B6010A30B4020318B70A03186A29B40732
:1002E0003408B6007D210800A601A50124080021DC
:1002F000A60023080021A5000800B901B8013708AD
:100300000021B90036080021B8000800B3010A3006
:10031000A800A900AA00AB00AC00AD000130AE00FF
:10032000B2000330B1000A30B400B001B5010515C8
:10033000851505170800A803063028060319301490
:100340000330280603198514A8080319C2210800E0
:10035000A9030630290603193014033029060319AE
:100360000516A9080319CC210800AA0306302A069D
:100370000319301403302A0603198517AA08031934
:10038000D62108000230AF002B08A80005148516FE
:1003900085110517851008000330AF002C08A9004F
:1003A0000514851506140513051208000130AF0069
:1003B0002D08AA00051505108515051785130800D9
:1003C00005193210051D3214321C0511321805159D
:1003D0003108031D080032140511B0010330B100CB
:1003E0000800851A3210851E3214321C851232180C
:1003F00085163108031D080032148512B001033040
:10040000B100080006183210061C3214321C061007
:10041000321806143108031D080032140610B0010A
:100420000330B10008000317831688018901031304
:100430008316850106108616061786178701880120
:1004400089018113951615179517031383128601D9
:1004500085018701880189010800031383160F13A2
:100460008F160F160F140800031383128B178B15AA
:100470000B108B160B110B17031383160C148C1413
:10048000031383120C108C100800031383169616A6
:10049000161796170313831206080B100800031390
:1004A0008316811281110115811401140313831223
:1004B000FF3081000B1108000313831210149010F9
:1004C0009016101603138312C2308F00F8308E007E
:1004D0000C1008000313831212151217921612162D
:1004E00092159214921503138312F43092008C101B
:0204F000080002
:04400E00C430FF3F7C
:00000001FF
