:020000003429A1
:10000800F000030EF1000B1816200B1947200C18EE
:10001800E0208C18FC200B181620710E8300F00EBF
:10002800700E090003138312861E2620053034063D
:100038000319B4010319BD01061F2B20861F39209F
:100048000B100800B40A0A30B500AE0008001430DE
:100058002E060319362804303406031DAE0A031988
:100068003D1408000A30AE0008000A302E060319B5
:10007800442804303406031DAE030319BD140800D8
:100088001430AE000800FF3081000B1188012008F1
:1000980003196E28F930200603197228FA30200651
:1000A80003197628FB30200603197A28FC3020062D
:1000B80003197E28FD30200603198228FE30200609
:1000C800361C682803198628FF302006361C6E283F
:1000D80003198A282608870092208E282508870079
:1000E8009F208E2843088700AC208E28420887006E
:1000F800B9208E2847088700C6208E284608870022
:10010800D3208E283908870008178E283A088700D8
:1001180088178E28F830A004A00A080001302F069E
:100128000319081402302F060319081503302F0687
:1001380003190816080001302F0603198814023025
:100148002F060319881503302F060319881608008F
:1001580001302F060319081502302F060319081657
:1001680003302F0603190814080001302F0603195D
:10017800881502302F060319881603302F06031935
:100188008814080001302F060319081602302F06BC
:100198000319081403302F06031908150800013045
:1001A8002F060319881602302F0603198814033006
:1001B8002F0603198815080003138312C2308F0015
:1001C800F8308E000C10031383123118B2032F0875
:1001D800B00001302F0603192F2202302F06031911
:1001E8003C2203302F06031949223008AF000800CB
:1001F80003138312F43092008C1031180421080084
:1002080001302F060319742202302F0603198522A4
:0802180003302F0603199622A2
:100240008A010A140F3982073F3406345B344F3475
:1002500066346D347D3407347F346F3477347C34C6
:1002600039345E3479347134C122A7221622C8226F
:10027000E322F022FE22D9220313831201302F063B
:100280000319A42102302F060319AC2103302F06D5
:100290000319B421BC21C921D621E3213408031953
:1002A0006221013034060319652102303406031936
:1002B0006D21033034060319742104303406031908
:1002C0007B213C2989013610080009148910091185
:1002D00036142E08B500AB00080009108914091166
:1002E0002E08B500AC0008000910891009152E0869
:1002F000B500AD00080009148914091536103D1821
:100300008621BD18B401BD18BD0108002B08A80046
:100310002C08A9002D08AA000130AF00B30003305B
:10032000B2000A30B500AE000030A000B101B60145
:10033000BD018501061005158515051708000F304C
:10034000BB00BB0BA12908002808A7002808BE0095
:1003500028082907BF0008002908A7002908BE00AF
:1003600029082A07BF0008002A08A7002A08BE009B
:100370002A082807BF000800A401A3010A30A70229
:100380000318A40A0318BF29A7072708A300F2210E
:100390000800C101C0010A30BE020318C10A0318D7
:1003A000CC29BE073E08C000FB210800C501C401DE
:1003B0000A30BF020318C50A0318D929BF073F082E
:1003C000C40004220800B801B7013508A7000A30AC
:1003D000A7020318B80A0318E829A7072708B700D7
:1003E0000D220800A601A50124082021A60023084B
:1003F0002021A5000800C301C20141082021C3003B
:1004000040082021C2000800C701C601450820217C
:10041000C70044082021C6000800B901BA01380805
:100420002021B90037082021BA000800B4010A30A1
:10043000A800A900AA00AB00AC00AD000130AF00DD
:10044000B3000330B2000A30B500AE000030A000A7
:10045000B101B601BD010515851505170800A803F2
:1004600006302806031931140330280603198514B1
:10047000A808031956220800A90306302906031903
:1004800031140330290603190516A908031960223F
:100490000800AA0306302A060319311403302A067D
:1004A00003198517AA0803196A2208000230B00050
:1004B0002B08A8000514851685110517851008005E
:1004C0000330B0002C08A900051485150614051387
:1004D000051208000130B0002D08AA00051505100E
:1004E000851505178513080005193310051D3314EC
:1004F000331C0511331805153208031D0800331489
:100500000511B1010330B2000800851A3310851EB1
:100510003314331C8512331885163208031D080066
:1005200033148512B1010330B200080006183310ED
:10053000061C3314331C0610331806143208031D2E
:10054000080033140610B1010330B200080003178D
:100550008316880189010313831685010610861608
:1005600006178617870188018901811395161517CB
:10057000951703138312860185018701880189017C
:100580000800031383160F138F160F160F1408009D
:10059000031383128B178B150B108B160B110B1774
:1005A000031383160C148C14031383120C108C1079
:1005B0000800031383169616161796170313831253
:1005C00006080B1008000313831681128111011510
:1005D0008114011403138312FF3081000B110800F2
:1005E0000313831210149010901610160313831225
:1005F000C2308F00F8308E000C10080003138312F5
:1006000012151217921612169215921492150313C0
:0A0610008312F43092008C100800F1
:04400E00C430FF3F7C
:00000001FF
