:020000001429C1
:10000800F000030EF1000B1816200B1920200C1815
:1000180065208C1881200B181620710E8300F00EB5
:10002800700E090003138312861EB30A05303306C7
:100038000319B3010B100800FF3081000B11880170
:10004800200803193728FD30200603193B28FE3005
:100058002006351C312803193F28FF302006351C9F
:10006800372803194328260887004B2047282508E6
:100078008700582047283808870008174728390874
:10008800870088174728FC30A004A00A0800013020
:100098002E060319081402302E060319081503301A
:1000A8002E0603190816080001302E0603198814B5
:1000B80002302E060319881503302E0603198816F8
:1000C800080003138312C2308F00F8308E000C1022
:1000D800031383123018B1032E08AF0001302E0627
:1000E8000319AC2102302E060319B92103302E065C
:1000F8000319C6212F08AE00080003138312F43039
:1001080092008C1030188920080001302E0603193F
:10011800F12102302E060319022203302E0603199C
:020128001322A0
:100200008A010A140F3982073F3406345B344F34B5
:1002100066346D347D3407347F346F3477347C3406
:1002200039345E34793471343E22242295214522BA
:1002300060226D227B2256220313831201302E0688
:1002400003195E2102302E060319612103302E06A8
:1002500003196421672174213308031940210130F7
:1002600033060319432102303306031948210330B2
:10027000330603194C2104303306031950211C297D
:100280008901351008000914891009113514080076
:1002900009108914091108000910891009150800AE
:1002A00009108910091159210914891409155921B6
:1002B00008000F30BA00BA0B5B2908002808A70015
:1002C00008002908A70008002A08A7000800A401C0
:1002D000A3010A30A7020318A40A03186A29A70772
:1002E0002708A30083210800B701B6013408A7003E
:1002F0000A30A7020318B70A03187929A7072708A5
:10030000B6008C210800A601A50124080021A60042
:1003100023080021A5000800B801B9013708002111
:10032000B80036080021B9000800B3010A30A8005F
:10033000A900AA00AB00AC00AD000130AE00B200D5
:100340000330B1000C30B4000030A000B001B501A2
:100350000515851505170800A8030630280603199A
:1003600030140330280603198514A8080319D32173
:100370000800A903063029060319301403302906A2
:1003800003190516A9080319DD210800AA03063080
:100390002A060319301403302A0603198517AA0800
:1003A0000319E72108000230AF002B08A80005144C
:1003B000851685110517851008000330AF002C083D
:1003C000A90005148515061405130512080001304F
:1003D000AF002D08AA000515051085150517851312
:1003E000080005193210051D3214321C051132188F
:1003F00005153108031D080032140511B001033042
:10040000B1000800851A3210851E3214321C851284
:10041000321885163108031D080032148512B00108
:100420000330B100080006183210061C3214321CCA
:100430000610321806143108031D08003214061085
:10044000B0010330B1000800031783168801890149
:100450000313831685010610861606178617870173
:1004600088018901811395161517951703138312B7
:10047000860185018701880189010800031383161D
:100480000F138F160F160F140800031383128B1708
:100490008B150B108B160B110B17031383160C14F3
:1004A0008C14031383120C108C1008000313831692
:1004B0009616161796170313831206080B100800DA
:1004C0000313831681128111011581140114031382
:1004D0008312FF3081000B110800031383121014E4
:1004E00090109016101603138312C2308F00F8304C
:1004F0008E000C10080003138312121512179216A7
:10050000121692159214921503138312F43092006E
:040510008C10080043
:04400E00C430FF3F7C
:00000001FF
